:100000000C940E010C944D010C9476010C942B0170
:100010000C942B010C942B010C942B010C942B01B0
:100020000C942B010C94AE010C94E8010C942B0160
:100030000C942B010C942B010C942B010C942B0190
:100040000C942B010C942B010C942B010C942B0180
:100050000C942B010C942B010C942B010C942B0170
:100060000C942B010C942B010C942B010C942B0160
:100070000C942B010C942B010C942B015F14731422
:1000800087149414A714B114BE1413152015076314
:100090004236B79BD8A71A39685618AEBAAB558CFA
:1000A0001D3CB7CC5763BD6DEDFD753EF617723143
:1000B000BF000000803F08000000BE922449123EAD
:1000C000ABAAAA2ABECDCCCC4C3E00000080BEAB71
:1000D000AAAAAA3E00000000BF000000803F000066
:1000E000000000084178D3BB4387D1133D190E3C73
:1000F000C3BD4282AD2B3E68EC8276BED98FE1A9AA
:100100003E4C80EFFFBE01C4FF7F3F0000000000B7
:100110006E616E00696E660000407A10F35A00A0AE
:10012000724E18090010A5D4E80000E876481700C0
:1001300000E40B54020000CA9A3B000000E1F50500
:10014000000080969800000040420F000000A0864A
:1001500001000000102700000000E803000000007C
:100160006400000000000A00000000000100000020
:1001700000002C76D888DC674F0823DFC1DFAE593A
:10018000E1B1B796E5E3E453C63AE651997696E8CD
:10019000E6C28426EB898C9B62ED407C6FFCEFBC51
:1001A0009C9F40F2BAA56FA5F490055A2AF75C937C
:1001B0006B6CF9676DC11BFCE0E40D47FEF520E6B2
:1001C000B500D0ED902E0300943577050080841E95
:1001D000080000204E0A000000C80C333333330FF0
:1001E000986E12831141EF8D2114893BE65516CF8D
:1001F000FEE6DB18D1844B381BF77C1D901DA4BB99
:10020000E424203284725E228100C9F124ECA1E54D
:100210003D273031323334353637383911241FBE5B
:10022000CFEFD8E0DEBFCDBF11E0A0E0B1E0E0E766
:10023000FAE302C005900D92A63DB107D9F721E07F
:10024000A6EDB1E001C01D92A13EB207E1F70E9408
:1002500004140C94361D0C9400004B990DC08FE1D2
:100260009EE40197F1F700C0000089B183FB882765
:1002700080F991E08927089580E008954A9B0BC09A
:100280008FE19EE40197F1F700C0000089B182FB85
:10029000882780F9089580E008951F920F920FB685
:1002A0000F9211242F933F934F935F936F937F93FC
:1002B0008F939F93AF93BF93EF93FF930E943E0161
:1002C000882319F081E08093DC01FF91EF91BF91C9
:1002D000AF919F918F917F916F915F914F913F91DE
:1002E0002F910F900FBE0F901F9018951F920F9295
:1002F0000FB60F9211242F933F934F935F936F93F9
:100300007F938F939F93AF93BF93EF93FF930E943D
:100310002D01882391F08091D601823011F0853033
:1003200061F4189B0AC080910001813019F4109289
:10033000000103C081E080930001FF91EF91BF9124
:10034000AF919F918F917F916F915F914F913F916D
:100350002F910F900FBE0F901F9018951F920F9224
:100360000FB60F9211242F933F934F935F936F9388
:100370007F938F939F93AF93BF93EF93FF9380915E
:10038000DB01811114C02CED34EA40E85FEB69E336
:100390007EE186E891E40E94C20A609101017091B9
:1003A000020180910301909104010E94D009FF9104
:1003B000EF91BF91AF919F918F917F916F915F91DD
:1003C0004F913F912F910F900FBE0F901F90189556
:1003D0001F920F920FB60F9211242F933F934F93BA
:1003E0005F936F937F938F939F93AF93BF93EF939D
:1003F000FF936091D7017091D8018091D9019091BC
:10040000DA0120E030E040E85FE30E94D915609314
:10041000D7017093D8018093D9019093DA01FF91AD
:10042000EF91BF91AF919F918F917F916F915F916C
:100430004F913F912F910F900FBE0F901F901895E5
:10044000AF92BF92CF92DF92EF92FF920F931F93E2
:10045000CF93DF93CDB7DEB760970FB6F894DEBFCA
:100460000FBECDBF8C015B010E94E11329833A834B
:100470004B835C836D837E838F83988720E042E388
:1004800068E2CE0101960E94CC0B009B02C001994C
:1004900004C0C8010E94AD04F8CF84E091E00E943E
:1004A0004E038FE9C82E81E0D82E7E01F9E0EF0ED1
:1004B000F11C609101017091020180910301909102
:1004C000040120E030E04CE052E40E94BF1687FDBA
:1004D0001EC0C8010E94AD048091010190910201EB
:1004E000A0910301B0910401BF93AF939F938F93A9
:1004F000DF92CF92FF92EF920E94B61CC7010E943A
:1005000064070FB6F894DEBF0FBECDBFD2CFC801CF
:100510000E94E11329833A834B835C836D837E833E
:100520008F83988740E060E0CE0101960E94A40B83
:100530000E945E0360E070E080E291E40E9462034A
:10054000F501608371838283938360960FB6F8947C
:10055000DEBF0FBECDBFDF91CF911F910F91FF90F6
:10056000EF90DF90CF90BF90AF900895EF92FF9201
:100570000F931F93CF93DF93CDB7DEB728970FB6B6
:10058000F894DEBF0FBECDBF8C017B010E94E1134A
:1005900029833A834B835C836D837E838F83988723
:1005A00020E042E368E2CE0101960E94CC0B84E099
:1005B00091E00E944E0360910101709102018091CF
:1005C00003019091040120E030E0A9010E9445164A
:1005D000811128C0D8011A96ED91FC911B971C96A9
:1005E0006C911C97308181E090E0AC011D960C90DD
:1005F00002C0440F551F0A94E2F7242F20952323AD
:100600002083208101C0880F6A95EAF780958223B4
:100610008083BFEFE9E6F8E1B150E040F040E1F758
:1006200000C00000609101017091020180910301FE
:100630009091040120E030E04CE052E40E94BF16AB
:1006400087FD04C0C8010E94AD04ECCF0E945E0388
:1006500060E070E080E291E40E946203D7016D9354
:100660007D938D939C93139728960FB6F894DEBFD5
:100670000FBECDBFDF91CF911F910F91FF90EF90F3
:1006800008951092B2008093B30087E08093B10088
:10069000E0E7F0E080818260808308951092D701C6
:1006A0001092D8011092D9011092DA01E0E7F0E03F
:1006B0009081946090838093B400089582E0809349
:1006C000700008958F929F92AF92BF92CF92DF9267
:1006D000EF92FF924B015C016091D7017091D801BC
:1006E0008091D9019091DA01C0900101D09002016E
:1006F000E0900301F090040120E030E040EF51E48D
:100700000E949417A50194010E947918A7019601EF
:100710000E94D91520E030E040EA50E40E94D9154B
:10072000FF90EF90DF90CF90BF90AF909F908F9011
:100730000895CF92DF92EF92FF926B017C0168E403
:1007400071EE85E293E40E94D815A70196010E94FC
:1007500094170E940D18CB01FF90EF90DF90CF907F
:100760000895F8945398E99A823041F0833051F01B
:10077000813069F480916900846007C080916900CC
:10078000886003C0809169008C60809369007894D0
:1007900008950F931F93CF93DF93CDB7DEB72A97BA
:1007A0000FB6F894DEBF0FBECDBF8C0181E0809301
:1007B000DB01E1E8F0E080818B7F808340E060E056
:1007C000C8010E94A40BD8011A96ED91FC911B97C9
:1007D000308181E090E0AC011D960C901D9702C025
:1007E000440F551F0A94E2F7242F209523232083DA
:1007F0001A96ED91FC911B9720811C960C9002C0DB
:10080000880F991F0A94E2F780958223808348E23B
:1008100050E067E270E0CE0101960E94540CBE01E8
:100820006F5F7F4FC8010E960E940207CE010196AE
:100830000E94720C2A960FB6F894DEBF0FBECDBF91
:10084000DF91CF911F910F9108958F929F92AF9258
:10085000BF92CF92DF92EF92FF920F931F93CF93AD
:10086000DF93CDB7DEB72A970FB6F894DEBF0FBE81
:10087000CDBF8C01F62E49015A0140E060E00E9494
:10088000A40B680128E0C20ED11C40E050E061E0FA
:10089000C6010E94890E81E08093DB018091810076
:1008A0008B7F8093810082E0F81619F095E0F912B1
:1008B00025C048E250E067E270E0CE0101960E9458
:1008C000540C78012EE0E20EF11C00910001A5010C
:1008D0009401BE016F5F7F4FC7010E94AC068091FB
:1008E000DC01813091F7BE016F5F7F4FC7010E942D
:1008F0000207CE0101960E94720C04C08091DC01B7
:100900008130E1F71092DC0140E050E060E0C60188
:100910000E94890E8FEF93ED20E38150904020409C
:10092000E1F700C000008091810084608093810025
:100930001092DB012A960FB6F894DEBF0FBECDBF32
:10094000DF91CF911F910F91FF90EF90DF90CF90AB
:10095000BF90AF909F908F900895CF93DF93EC015D
:10096000019907C0009905C0039912C0049910C0ED
:100970001FC06EE1CE010E947C0B8FE697E10197CC
:10098000F1F700C0000068E2CE010E947C0BECCFC2
:1009900062E3CE010E947C0B8FE697E10197F1F7AD
:1009A00000C0000068E2CE01DF91CF910C947C0B77
:1009B000DF91CF9108950F931F93CF93DF93EC01B5
:1009C0008B01019940C000993EC003994BC0049926
:1009D00049C0009B1BC0019B19C0F80180818F5F3B
:1009E0008083FFEF23EC89E0F15020408040E1F765
:1009F00000C0000060E0CE010E94250C029BFECFEB
:100A000020E042E368E2CE010E94CC0B049B39C097
:100A1000039B37C09FEFE3ECF9E09150E040F040DA
:100A2000E1F700C0000061E0CE010E94250C029BAE
:100A3000FECF20E042E368E2CE01DF91CF911F912B
:100A40000F910C94CC0B6EE1CE010E947C0B8FE6D3
:100A500097E10197F1F700C0000068E2CE010E9423
:100A60007C0BB3CF62E3CE010E947C0BEFE6F7E193
:100A70003197F1F700C0000068E2CE010E947C0BC4
:100A8000A8CFDF91CF911F910F9108950F931F93DE
:100A9000CF938C01C3E020E042E46AE3C8010E94E6
:100AA000CC0B2FEF81EE94E0215080409040E1F795
:100AB00000C0000040E060E0C8010E94A40B2FEFDE
:100AC0008EE994E2215080409040E1F700C00000A0
:100AD000C15009F7CF911F910F910895CF93DF93E4
:100AE000EC0161E00E94250C2FEF8CEB9FE121507F
:100AF00080409040E1F700C0000020E04CE368E255
:100B0000CE010E94CC0B029BFECF40E060E0CE0104
:100B1000DF91CF910C94A40BCF93DF93EC0160E0B5
:100B20000E94250C2FEF89E698E1215080409040EB
:100B3000E1F700C00000029BFECF40E060E0CE0184
:100B40000E94A40B2FEF89E698E12150804090404D
:100B5000E1F700C0000020E042E368E2CE010E941D
:100B6000CC0B039B02C0049904C0CE010E94AD04CB
:100B7000F8CF2FEF82E597E0215080409040E1F7D9
:100B800000C00000039B02C0049904C0CE010E9473
:100B9000AD04F8CF2FEF83EC99E0215080409040D6
:100BA000E1F700C0000061E0CE010E94250C2FEFAC
:100BB00089E698E1215080409040E1F700C00000B4
:100BC000029BFECF40E060E0CE010E94A40B2FEF1D
:100BD00089E698E1215080409040E1F700C0000094
:100BE00020E042E368E2CE010E94CC0B84E091E079
:100BF0000E944E036091D7017091D8018091D90174
:100C00009091DA0120E030E046EE52E40E94451671
:100C1000882321F0CE010E94AD04ECCF40E060E0DB
:100C2000CE010E94A40B2FEF89E698E1215080406D
:100C30009040E1F700C0000061E0CE010E94250C69
:100C40002FEF8DE399E4215080409040E1F700C000
:100C5000000040E060E0CE010E94A40B2FEF89E687
:100C600098E1215080409040E1F700C0000020E072
:100C700042E368E2CE010E94CC0B039B1EC0039BA3
:100C80001CC0049B1AC02FEF82E597E021508040E2
:100C90009040E1F700C0000061E0CE010E94250C09
:100CA000029BFECF20E042E368E2CE010E94CC0B23
:100CB000039B07C0049B05C008C0CE010E94AD0481
:100CC000DCCFCE010E94AD04F3CF2FEF83EC99E08F
:100CD000215080409040E1F700C0000061E0CE016B
:100CE0000E94250C2FEF89E698E12150804090402A
:100CF000E1F700C00000029BFECF20E042E368E283
:100D0000CE010E94CC0B039B02C0049904C0CE010B
:100D10000E94AD04F8CF2FEF83EC99E02150804082
:100D20009040E1F700C0000061E0CE010E94250C78
:100D3000029BFECF40E060E0CE010E94A40B2FEFAB
:100D400089E698E1215080409040E1F700C0000022
:100D5000DF91CF9108950895CF92DF92EF92FF92A5
:100D60000F93CF93DF93CDB7DEB728970FB6F894E4
:100D7000DEBF0FBECDBF6B01CA01B9019E012F5F5F
:100D80003F4F79010130C1F42CE53FE842E250E4E5
:100D90000E9494179F938F937F936F9386EA91E0BD
:100DA0009F938F93FF92EF920E94B61C0FB6F89418
:100DB000DEBF0FBECDBF12C00E9406187F936F9397
:100DC0008DEA91E09F938F93FF92EF920E94B61C61
:100DD0000F900F900F900F900F900F9021E040E038
:100DE000B701C6010E94B30C28960FB6F894DEBF77
:100DF0000FBECDBFDF91CF910F91FF90EF90DF90AD
:100E0000CF900895CB010C94A50C9091C00095FF54
:100E1000FCCF8093C6000895CF92DF92EF92FF92AD
:100E2000F62FC82ED12CE12CF12CB601C701E1E040
:100E3000EF1740F49B01AC01C701B6010E94C41634
:100E4000EF5FF6CFFF90EF90DF90CF900895CF92B5
:100E5000DF92EF92FF92F62FC82ED12CE12CF12CCD
:100E6000B601C701E1E0EF1740F49B01AC01C701F7
:100E7000B6010E94C416EF5FF6CFFF90EF90DF90AF
:100E8000CF9008951092C5008FEC8093C40010920B
:100E9000C00088E18093C10086E08093C20008957D
:100EA0000F931F93CF93DF93EC018C01060F111D5D
:100EB000C017D10721F089910E940507F9CFDF9172
:100EC000CF911F910F9108950F931F93CF938C0192
:100ED000C0E0F801EC0FF11D8081882321F00E9411
:100EE0000507CF5FF6CFCF911F910F9108958091A5
:100EF000C00087FFFCCF8091C60008950C940507C1
:100F00007F928F929F92AF92BF92CF92DF92EF9299
:100F1000FF920F931F93CF93DF93CDB7DEB7CDB67C
:100F2000DEB697FF08C000271127081B190B8DE2BA
:100F30000E94050701C08C01772473944801012E9B
:100F4000000CAA08BB08E1E02AE030E040E050E0F5
:100F5000E71540F4AAE0B0E00E9443179B01AC0102
:100F6000EF5FF6CF82169306A406B50614F07394CD
:100F7000EACF272D30E08DB79EB7821B930B0FB6BB
:100F8000F8949EBF0FBE8DBFADB7BEB711967D0161
:100F90005D018AE0882E912C8A2D8E19871568F4C0
:100FA000C801B4010E94E8168B01FC01EE5EFD4F02
:100FB000E491D501ED935D01EFCF8701020F131F7F
:100FC0000E151F0531F0F80182918F010E9405076F
:100FD000F7CF0FB6F894DEBE0FBECDBEDF91CF9136
:100FE0001F910F91FF90EF90DF90CF90BF90AF9047
:100FF0009F908F907F90089590E00C9480072F929F
:101000003F924F925F927F928F929F92AF92BF9248
:10101000CF92DF92EF92FF920F931F93CF93DF93C4
:1010200000D0CDB7DEB72DB73EB73A83298397FFFF
:101030000BC0CC24DD247601C61AD70AE80AF90AC7
:101040008DE20E94050702C06B017C017724739436
:10105000E1E02AE030E040E050E0E71540F4AAE0AB
:10106000B0E00E9443179B01AC01EF5FF6CFC216C0
:10107000D306E406F50614F07394EACF072D10E0CA
:101080008DB79EB7801B910B0FB6F8949EBF0FBE15
:101090008DBFEDB7FEB731965F014F018AE0282E74
:1010A000312C412C512C882D8A19871580F4C701C9
:1010B000B601A20191010E941E1769017A01FB018C
:1010C000EE5EFD4F6491F40161934F01ECCF0A0D88
:1010D0001B1D0A151B0531F0F80182918F010E943A
:1010E0000507F7CF29813A810FB6F8943EBF0FBEAE
:1010F0002DBF0F900F90DF91CF911F910F91FF9017
:10110000EF90DF90CF90BF90AF909F908F907F90A7
:101110005F904F903F902F900895BC0180E090E049
:101120000C94FF074F925F926F927F928F929F92E3
:10113000AF92BF92CF92DF92FF920F931F93CF9304
:10114000DF93CDB7DEB72B013C018DB69EB6FF24F1
:10115000F394E1E02AE030E040E050E0EF1540F4A5
:10116000AAE0B0E00E9443179B01AC01EF5FF6CF0D
:10117000421653066406750610F0F394EACF0F2D5D
:1011800010E08DB79EB7801B910B0FB6F8949EBFF1
:101190000FBE8DBFEDB7FEB731966F015F019201B3
:1011A000A3018AE0482E512C612C712C8A2D8C19B8
:1011B0008F1570F4B901CA01A30192010E94FC16B7
:1011C000FB01EE5EFD4F6491F50161935F01EECF8F
:1011D0000C0D1D1D0C151D0531F0F80182918F01BC
:1011E0000E940507F7CF0FB6F8949EBE0FBE8DBEC6
:1011F000DF91CF911F910F91FF90DF90CF90BF9023
:10120000AF909F908F907F906F905F904F900895D8
:101210008AE00C94050782EB91E00C946407F89443
:101220005298E89A823041F0833051F0813069F46D
:1012300080916900816007C080916900826003C06D
:101240008091690083608093690078940895FC011F
:101250008081823041F0833051F0813089F4809177
:101260008000806407C08091800081600BC0809105
:10127000800081608093800080918100886006C03A
:101280008091800080938000809181008093810014
:101290000895FC018181823079F030F48130A1F42D
:1012A00080918100826013C0833051F0843061F4FA
:1012B0008091810085600BC080918100836007C0B0
:1012C00080918100846003C080918100816080935F
:1012D0008100109282000895CF93DF93EC01109269
:1012E0008500109284008A819B819093890080936D
:1012F00088008C819D8190938B0080938A00CE0121
:101300000E942709CE01DF91CF910C944909CF9318
:10131000DF9300D000D000D0CDB7DEB724E0829FAD
:10132000C0011124FC01E95AFF4F20E030E040E009
:1013300054E460817181828193810E9479189B01BC
:10134000AC0160E576ED8CE59FE40E94941720E007
:1013500030E04AE754E40E94941720E030E040E88F
:101360005FE30E94D8150E940D1821E0298323E035
:101370002A837C836B831E821D82CE0101960E948C
:101380006C0926960FB6F894DEBF0FBECDBFDF9175
:10139000CF910895E1E8F0E080818B7F808308950C
:1013A0008F929F92AF92BF92CF92DF92EF92FF9275
:1013B0006B017C018AB180638AB95C982AE037EDC1
:1013C00043E752E4C701B6010E94BF16181654F451
:1013D000FF90EF90DF90CF90BF90AF909F908F9055
:1013E0000C94CA09809181008460809381002AE076
:1013F00037ED43E752E4C701B6010E944516882342
:10140000C9F12AE037ED43EF51E4C701B6010E946C
:10141000451618163CF0812C912C9AEFA92E94E4D5
:10142000B92E03C0812C912C54012AE037ED43EFF3
:1014300051E4C701B6010E94BF1618160CF52AE048
:1014400037ED43E752E4C701B6010E94451687FF16
:1014500017C021E73DE34CE652ECC701B6010E94FC
:10146000791820E030E84DE655E40E94D9154B018B
:101470005C0106C0812C912C88E4A82E83E4B82E50
:1014800020E030E04AE754E4C501B4010E9494171B
:101490009B01AC010E94D91520E030E040E853E404
:1014A0000E9479189B01AC0160E070E08AEF95E43E
:1014B0000E94941720E030E040E85FE30E94D815D6
:1014C0000E940D187093890060938800FF90EF9040
:1014D000DF90CF90BF90AF909F908F9008950F9323
:1014E0001F93CF93DF931F92CDB7DEB7CE01019646
:1014F0000E94FA0E66E0CE0101960E94030F8C0155
:10150000CE0101960E94000FC80196958795969589
:1015100087950F90DF91CF911F910F910895DF92E2
:10152000EF92FF920F931F93CF93DF9320E030E071
:1015300070E0EB0121972C173D07E4F4FC0141E03A
:101540007B01E21AF30ADF01A81BB90BEA16FB06BE
:1015500064F05191D080D516B0F78F010150110978
:10156000D801DC92508340E0EECF411103C02F5FE1
:101570003F4FE1CFDF91CF911F910F91FF90EF90FF
:10158000DF9008954F925F926F927F928F929F9219
:10159000AF92BF92CF92DF92EF92FF920F931F9381
:1015A000CF93DF93CDB7DEB769970FB6F894DEBF60
:1015B0000FBECDBF4B015C0129013A010E988E018F
:1015C0000F5F1F4F7E018AE1E80EF11C68010E9447
:1015D0006F0AF80181938F01EE15FF05C1F769E1EC
:1015E000C6010E948F0AA301920160E070E080E8CA
:1015F0009FE30E9494176B017C016D8570E080E091
:1016000090E00E943E18A50194010E949417A70142
:1016100096010E94E61820E030E048EC52E40E9477
:10162000791820E030E040E251E40E94D815609340
:101630000101709302018093030190930401699664
:101640000FB6F894DEBF0FBECDBFDF91CF911F91D3
:101650000F91FF90EF90DF90CF90BF90AF909F9051
:101660008F907F906F905F904F900895DC01ED9187
:10167000FC911197408121E030E0C90112960C9055
:1016800002C0880F991F0A94E2F7842B8083089583
:10169000611114C0DC01ED91FC911197408121E0B2
:1016A00030E0B90112960C9002C0660F771F0A94C1
:1016B000E2F7CB0180958423808308950C94360B48
:1016C000DC01ED91FC911197408121E030E0C901EE
:1016D00012960C9002C0880F991F0A94E2F7842793
:1016E000808308958FEF84B916BC84B5816A84BD68
:1016F00085B5856085BD08958FEF689FB001112481
:10170000072E000C880B990B0E943E182AE037ED3B
:1017100043E25CE30E9479180E940D1867BD0895AA
:101720008FEF689FB0011124072E000C880B990BD6
:101730000E943E182AE037ED43E25CE30E947918EC
:101740000E940D1868BD08950F931F93CF93DF93E8
:101750008C01C62FD42F642F0E94480B6D2FC80117
:1017600004960E94480B8FEFC89FB0011124072EEA
:10177000000C880B990B0E943E182AE037ED43E2DB
:101780005CE30E9479180E940D1867BD68BDDF9167
:10179000CF911F910F910895FF920F931F93CF93B5
:1017A000DF93EC01F62E042F122F622F0E94480BBC
:1017B000612FCE0104960E94480B6F2DCE010E942E
:1017C0007C0B602FCE01DF91CF911F910F91FF9085
:1017D0000C94900B1F93CF93DF93EC01162F40E0F6
:1017E00060E00E94A40B2FEF89E698E12150804031
:1017F0009040E1F700C00000111109C0CE010E9425
:10180000360B60E0CE0104960E94480B0AC01130EE
:1018100041F460E0CE010E94480BCE0104960E9484
:10182000360B8CE487BD88BD2FE784E89EE121500C
:1018300080409040E1F700C0000040E060E0CE0151
:10184000DF91CF911F910C94A40B1F93CF93DF9343
:10185000EC01162F40E060E00E94A40B2FEF84E320
:101860009CE0215080409040E1F700C00000111141
:1018700009C0CE010E94360B60E0CE0104960E94A2
:10188000480B0AC0113041F460E0CE010E94480BC1
:10189000CE0104960E94360B89E588BD8CE487BD95
:1018A000DF91CF911F910895CF93DF93EC01CB018E
:1018B000188219821A821B825D834C8318861986CE
:1018C000BA010E94C10F4C815D8160E081E00E94FD
:1018D000790F80E190E00E946B1A9F838E83DF91E5
:1018E000CF910895FC01868197810C94031B1F936F
:1018F000CF93DF93EC01162F2C813D81462F6B8116
:1019000081E00E94810F1A83DF91CF911F9108958A
:101910001F93CF93DF93EC01162F2C813D814A81D9
:1019200081E00E94810F1B83DF91CF911F91089569
:10193000FC01862F603240F46183648175818031BF
:1019400008F0805D0C94B40F0895CF93DF93EC0101
:101950008C819D810E946D0F18826981CE01DF917B
:10196000CF910C94980C6F927F928F929F92AF922E
:10197000BF92CF92DF92EF92FF920F931F93CF937C
:10198000DF936115710509F476C0E22EF42E8B0108
:10199000EC01CB010E941C106C017A808B8060E00E
:1019A000CE010E94770C60E0CE010E94880CEE20F0
:1019B00019F0CE010E94A50C2FE12F1508F45BC091
:1019C0004F2D50E0C601992720E230E0241B350B53
:1019D000281739070CF44FC09C2C6C817D81EFE0F7
:1019E000EF1548F1840F951F409724F080E1E82E11
:1019F000EF1801C0EC2C8F2D0E94B40F602E5801FF
:101A00006C817D818A2D86198E1530F4F5018191C6
:101A10005F010E94BB0FF4CF80E40E94B40FE91471
:101A2000E0F46C817D81F801EE0DF11D80810E9452
:101A3000BB0FE394F4CF80E38F0D0E94B40FE02E30
:101A400058018A2D8E19891540F46C817D81F5012C
:101A500081915F010E94BB0FF4CF6981CE010E948A
:101A6000980C672DCE010E94770C682DCE010E9444
:101A7000880CFC0CF882DF91CF911F910F91FF90A1
:101A8000EF90DF90CF90BF90AF909F908F907F901E
:101A90006F900895EF92FF920F931F93CF93DF9370
:101AA0008C016830D0F441155105B9F0EA01862F58
:101AB000F80164817581880F880F880F0E94AC0F30
:101AC0007E01F8E0EF0EF11CF801648175818991C7
:101AD0000E94BB0FCE15DF05B9F7DF91CF911F91A3
:101AE0000F91FF90EF900895CF93DF93EC01611574
:101AF000710521F020E048810E94B30CCE01DF91F6
:101B0000CF9108950F931F93CF93DF9300D0CDB75C
:101B1000DEB78C011A8219826983BE016F5F7F4F25
:101B20000E94740DC8010F900F90DF91CF911F910B
:101B30000F910895CF93DF93EC017F936F938BEB1D
:101B400091E09F938F938F818F938E818F930E94CB
:101B5000B61C6E817F81CE010E94740D0F900F9094
:101B60000F900F900F900F90CE01DF91CF910895BD
:101B7000CF93DF93EC017F936F938EEB91E09F9374
:101B80008F938F818F938E818F930E94B61C6E816D
:101B90007F81CE010E94740D0F900F900F900F90D7
:101BA0000F900F90CE01DF91CF910895CF93DF93E7
:101BB000EC011F926F9381EC91E09F938F938F8143
:101BC0008F938E818F930E94B61C6E817F81CE0190
:101BD0000E94740D0F900F900F900F900F900F9028
:101BE000CE01DF91CF9108950F931F93CF93DF9391
:101BF000EC018B016115710561F0288581E02827D2
:101C00004985CE010E94B30C8885882311F018867F
:101C10001986C801DF91CF911F910F91089560320D
:101C200020F4FC01618721E0208708950F931F9322
:101C3000CF93DF93EC018881082F681708F4062FF3
:101C4000801B888310E0101731F060E2CE010E9403
:101C5000820D1F5FF8CF8881811B8883DF91CF9130
:101C60001F910F910895CF93DF93FC01CB016AE0A0
:101C700070E00E94D41620E030E081E090E026176A
:101C8000370709F443C0A281B381CC91AC01048031
:101C900002C0440F551F0A94E2F74C2B4C93AFE45B
:101CA000B6E41197F1F700C00000C281D3815881DA
:101CB000DC01048002C0AA0FBB1F0A94E2F74A2F7E
:101CC000409545234883A281B381CC91AC01058026
:101CD00002C0440F551F0A94E2F74C2B4C93AFEC13
:101CE000B7E01197F1F700C00000C281D38158819D
:101CF000DC01058002C0AA0FBB1F0A94E2F74A2F3D
:101D00004095452348832F5F3F4FB9CFDF91CF9157
:101D10000895FC01CA01613009F130F06230C9F563
:101D2000BA01CF010C94330EA281B3815C9121E002
:101D300030E0B901058002C0660F771F0A94E2F710
:101D4000462F409545234C93A281B3814C9104804A
:101D500002C0220F331F0A94E2F719C0A281B38197
:101D60005C9121E030E0B901048002C0660F771F6A
:101D70000A94E2F7462F409545234C93A281B38104
:101D80004C91058002C0220F331F0A94E2F7242BE6
:101D90002C93009771F16AE070E00E94D41680E005
:101DA00090E08617970741F0AFE1BEE41197F1F795
:101DB00000C000000196F5CFA281B3813C9181E083
:101DC00090E0AC01058002C0440F551F0A94E2F771
:101DD000242F209523232C93A281B3812C9104805E
:101DE00002C0880F991F0A94E2F7809582238C9392
:101DF0000895089510927C0086E880937A000895F3
:101E000010927A00089580917C00807E80937C00FF
:101E100080917C006770682B60937C0080917A00D1
:101E2000806480937A0080917A0084FFFCCF809157
:101E30007A00806180937A00209178008091790007
:101E400090E0982F8827820F911D0895FC018081D2
:101E50008062808384E08A95F1F780818F7D808322
:101E60000895EF92FF920F931F93CF93DF93162F56
:101E7000042FE90190E8899F700111248881817203
:101E800088832881862F90E034E0959587953A9550
:101E9000E1F7880F991F8E29822B8883CE010E943B
:101EA000260F88818172888388811F70110F1E29F7
:101EB000182B1883CE010E94260F80E0801731F086
:101EC0009AE19A95F1F700C08F5FF8CFDF91CF913B
:101ED0001F910F91FF90EF9008959C0144EA61E0FB
:101EE00080E00C94310F9C0144EA62E080E00C94A5
:101EF000310F9A01880F6460682B44E080E00C94F5
:101F0000310F660F4860462B54E0859FC0011124B5
:101F1000642F682B44E080E00C94310F9A0144E078
:101F2000649FB0011124606148E0849FC0011124C6
:101F3000682B44E080E00C94310F9A0148E0649FE4
:101F4000B0011124606240E1849FC0011124682B1C
:101F500044E080E00C94310F9B018F77682F606420
:101F600044E080E00C94310F9B01682F606844E0EE
:101F700080E00C94310F9B0144E0682F81E00C94C9
:101F8000310FCF93DF93FC01EB018FE295E70197CF
:101F9000F1F700C0000080818172808380818FEF23
:101FA0008083888181728883888186608883888124
:101FB0008E7F8883CB010E94260F87E090E20197F5
:101FC000F1F700C00000CE010E94260F87EC90E0E0
:101FD0000197F1F700C00000CE010E94260F9AE69B
:101FE0009A95F1F700C08881817288838881846026
:101FF0008883CE010E94260F8AE68A95F1F700C0F9
:102000009E0144E06CE280E00E94310F9E0140E0BE
:1020100060E080E00E94810FCE010E946D0FAE0152
:1020200060E081E00E94790F9E0140E060E081E085
:10203000DF91CF910C94810FFC0131969F01281BF9
:10204000390B41914111FACFC90108950F931F93A4
:10205000CF93DF93FC01CB011786009739F08F01F6
:10206000015F1F4F2EE0C42FD0E007C080E38687BA
:10207000CF010E9615C0222371F0BE010E94D41626
:10208000DC01AC53BE4F8C91D8018E938D01215051
:10209000CB01009781F7822F90E001968E0F9F1F52
:1020A000DF91CF911F910F91089520E030E0281724
:1020B000390749F0EFECF7E03197F1F700C0000085
:1020C0002F5F3F4FF4CF0895A0E1B0E0EAE6F0E1E2
:1020D0000C944E177C011B016A01FC0117821682C9
:1020E000838181FF44C39E012F5F3F4F3901F70178
:1020F0009381F10193FD859193FF81911F018823C5
:1021000009F431C3853239F493FD859193FF8191B0
:102110001F01853239F4B70190E00E947A1C560104
:102120006501E5CF10E0512C912CFFE1F915D8F0B5
:102130008B3279F038F4803279F08332A1F4F92DC2
:10214000F0612EC08D3261F0803369F4292D216059
:102150002DC0392D3260932E892D8460982E2AC08F
:10216000E92DE86015C097FC2DC020ED280F2A301E
:1021700088F496FE06C03AE0139F200D1124122F1A
:1021800019C08AE0589E200D1124522EE92DE062DC
:102190009E2E10C08E3231F496FCE5C2F92DF0640B
:1021A0009F2E08C08C3621F4292D2068922E02C063
:1021B000883641F4F10193FD859193FF81911F01D0
:1021C0008111B3CF9BEB980F933020F4992D906140
:1021D000805E07C09BE9980F933008F066C1992D87
:1021E0009F7E96FF16E09F73992E853619F49064B2
:1021F000992E08C0863621F4392F3068932E02C0FC
:102200001111115097FE07C01C3350F4442443941D
:10221000410E27E00BC0183038F027E017E005C06A
:1022200027E09CE3492E02C0212F412C560184E077
:10223000A80EB11CF6016081718182819381042D09
:10224000A3010E948C1B6C01F981FC87F0FF02C086
:10225000F3FF06C091FC06C092FE06C000E205C076
:102260000DE203C00BE201C000E08C858C7019F018
:1022700001115AC29BC297FE10C04C0CFC85F4FFA2
:1022800004C08A81813309F44A94141474F528E057
:10229000241578F588E0482E2CC096FC2AC0812FA2
:1022A00090E08C159D059CF03CEFC3163FEFD306E4
:1022B00074F0892D8068982E0AC0E2E0F0E0EC0FFF
:1022C000FD1FE10FF11D8081803319F411501111B0
:1022D000F4CF97FE0EC044244394410E812F90E02A
:1022E000C816D9062CF41C1904C04424439401C018
:1022F00010E097FE06C01C141D0434F4C6010196BC
:1023000005C085E090E002C081E090E001110196F7
:10231000112331F0212F30E02F5F3F4F820F931FA9
:10232000252D30E08217930714F4581A01C0512C60
:10233000892D897049F4552039F0B70180E290E089
:102340000E947A1C5A94F7CF002329F0B701802FFE
:1023500090E00E947A1C93FC09C0552039F0B70127
:1023600080E390E00E947A1C5A94F7CF97FE4CC00D
:102370004601D7FE02C0812C912CC601881999090B
:10238000F301E80FF91FFE87ED8796012419310943
:10239000388B2F87012F10E01195019511093FEF20
:1023A0008316930629F4B7018EE290E00E947A1C0E
:1023B000C814D9044CF08F8598898815990524F4A0
:1023C000ED85FE85818101C080E3F1E08F1A9108DF
:1023D0002D853E852F5F3F4F3E872D8780169106C6
:1023E0002CF0B70190E00E947A1CD9CFC814D90410
:1023F00041F49A81963320F4953319F43C8534FFE7
:1024000081E3B70190E04EC08A81813319F09C8549
:102410009F7E9C87B70190E00E947A1C111105C035
:1024200094FC18C085E690E017C0B7018EE290E0FA
:102430000E947A1C1E5F82E001E0080FF301E80FA2
:10244000F11D8081B70190E00E947A1C802F01135A
:10245000F3CFE6CF85E490E0B7010E947A1CD7FC69
:1024600006C0C114D10441F4EC85E4FF05C0D19449
:10247000C194D1088DE201C08BE2B70190E00E94C7
:102480007A1C80E32AE0C216D1042CF08F5FFAE0B8
:10249000CF1AD108F7CFB70190E00E947A1CB7019C
:1024A000C601C0960E947A1C54C1833631F083372E
:1024B00079F0833509F056C020C0560132E0A30EF2
:1024C000B11CF6018081898301E010E0630112C034
:1024D0005601F2E0AF0EB11CF601C080D18096FE2D
:1024E00003C0612F70E002C06FEF7FEFC6010E9452
:1024F0006F1C8C01F92DFF7714C0560122E0A20E4B
:10250000B11CF601C080D18096FE03C0612F70E03F
:1025100002C06FEF7FEFC6010E94641C8C01F92D91
:10252000F0689F2EF3FD1AC0852D90E0081719075B
:10253000A8F4B70180E290E00E947A1C5A94F4CF8C
:10254000F60197FC859197FE81916F01B70190E0AC
:102550000E947A1C51105A9401501109011511055D
:1025600079F7F7C0843611F0893661F5560197FE88
:1025700009C024E0A20EB11CF60160817181828144
:1025800093810AC0F2E0AF0EB11CF6016081718147
:10259000072E000C880B990BF92DFF769F2E97FFC5
:1025A00009C090958095709561957F4F8F4F9F4F93
:1025B000F0689F2E2AE030E0A3010E94D81CC82EAC
:1025C000C6183FC0092D853721F40F7E2AE030E080
:1025D0001DC0097F8F3691F018F4883559F0C3C0BB
:1025E000803719F0883711F0BEC0006104FF09C0C0
:1025F000046007C094FE08C0066006C028E030E012
:1026000005C020E130E002C020E132E0560107FFC2
:1026100009C084E0A80EB11CF6016081718182813D
:10262000938108C0F2E0AF0EB11CF60160817181A8
:1026300080E090E0A3010E94D81CC82EC6180F7736
:10264000902E96FE0BC0092D0E7FC11650F494FEFD
:102650000AC092FC08C0092D0E7E05C0DC2C092D95
:1026600003C0DC2C01C0D12E04FF0DC0FE01EC0D17
:10267000F11D8081803311F4097E09C002FF06C07C
:10268000D394D39404C0802F867809F0D39403FDAB
:1026900011C000FF06C01C2DD51480F4150D1D19A6
:1026A0000DC0D51458F4B70180E290E00E947A1C66
:1026B000D394F7CFD51410F45D1801C0512C04FF4A
:1026C00010C0B70180E390E00E947A1C02FF17C09F
:1026D00001FD03C088E790E002C088E590E0B70103
:1026E0000CC0802F867859F001FF02C08BE201C038
:1026F00080E207FD8DE2B70190E00E947A1CC116CE
:1027000038F4B70180E390E00E947A1C1150F7CFB3
:10271000CA94F301EC0DF11D8081B70190E00E9495
:102720007A1CC110F5CF15C0F4E0F51560F584E012
:10273000581A93FE1FC0011127C02C8523FF2AC001
:1027400000E111E0392D3071932EF801849181114F
:1027500024C0552009F4E4CCB70180E290E00E9447
:102760007A1C5A94F6CFF7018681978126C08FEFA5
:102770009FEF23C0B70180E290E00E947A1C5A9438
:102780005110F8CFD8CF512CB701802F90E00E9484
:102790007A1CD3CF04E111E0D5CF91108052B7015C
:1027A00090E00E947A1C0F5F1F4FCFCF23E02515CA
:1027B00010F483E0BDCF512CC0CF6096E2E10C94C1
:1027C0006A17CF93DF93CDB7DEB728970FB6F8948B
:1027D000DEBF0FBECDBFFC0198E0DE011196019077
:1027E0000D929A95E1F729813A814B815C816D8147
:1027F0007E818F81988528960FB6F894DEBF0FBE34
:10280000CDBFDF91CF9108951F93CF93DF93CDB7C5
:10281000DEB7A2970FB6F894DEBF0FBECDBF1E8EF7
:102820001F8E18A219A21AA282E00E94B10383E0AF
:102830000E940F091C8285E290E09A8389831886A2
:102840009E838D8325E02B8326E02F8324E230E0D6
:102850003A8729879C878B8711E01D871E868FEF1B
:1028600084B9CE0101960E94E113288B398B4A8BE3
:102870005B8B6C8B7D8B8E8B9F8BCE0140960E94E9
:10288000720B0E944207188F83E0898F1B8E1A8E6D
:102890001D8E1C8ECE0148960E946C0984E091E04A
:1028A0000E944103E091D6018E2F90E0893091057E
:1028B00008F06EC1FC01E25CFF4F0C943D172091C3
:1028C000010130910201409103015091040160E047
:1028D000CE0101960E94250484E091E00E9441030C
:1028E00081E08093D601BE01625E7F4FCE010196EA
:1028F0000E9420022E8D3F8D48A159A160E070E01A
:1029000080E291E40E94990382E08093D6012E8DAB
:102910003F8D48A159A16091D601CE0101960E9438
:10292000250483E08093D601CE0101960E948C0598
:1029300080E090E0A0E2B2E4809301019093020174
:10294000A0930301B093040184E08093D601BE01FB
:10295000625E7F4FCE0101960E94B60285E08093B1
:10296000D6012E8D3F8D48A159A16091D601CE018F
:1029700001960E94250486E08093D601CE0101963F
:102980000E946E0584E091E00E944103CE01019611
:102990000E94E113288B398B4A8B5B8B6C8B7D8B70
:1029A0008E8B9F8B20E042E368E2CE0140960E942E
:1029B000CC0B609101017091020180910301909113
:1029C000040120E030E040E051E40E94BF1687FDA2
:1029D00008C0BE016E5D7F4FCE0101960E94DB04F0
:1029E000E8CFCE0101960E94E113288B398B4A8BE8
:1029F0005B8B6C8B7D8B8E8B9F8B40E060E0CE0180
:102A000040960E94A40B2FEF8EE994E22150804063
:102A10009040E1F700C00000CE0101960E944605FB
:102A200087E08093D6012E8D3F8D48A159A16091FA
:102A3000D601CE0101960E94250488E08093D6013C
:102A4000CE0101960E94E113288B398B4A8B5B8B58
:102A50006C8B7D8B8E8B9F8B60E0CE0140960E94AD
:102A6000250C2FEF89E698E1215080409040E1F756
:102A700000C00000029BFECFCE0101960E94E11330
:102A8000288B398B4A8B5B8B6C8B7D8B8E8B9F8BD2
:102A900040E060E0CE0140960E94A40B2FEF89E653
:102AA00098E1215080409040E1F700C00000CE0145
:102AB00001960E94E113288B398B4A8B5B8B6C8BC0
:102AC0007D8B8E8B9F8B20E042E368E2CE014096A7
:102AD0000E94CC0B1AA28AA1823040F4BE016E5D26
:102AE0007F4FCE0101960E94DB04F5CF86E0FE0108
:102AF0003996DE01509601900D928A95E1F740E0FB
:102B000050E061E0CE0140960E94890ECE01019610
:102B10000E94E113288B398B4A8B5B8B6C8B7D8BEE
:102B20008E8B9F8B20E042E368E2CE0140960E94AC
:102B3000CC0B84E091E00E944E036091D70170912C
:102B4000D8018091D9019091DA0123E333E34DE973
:102B500052E40E94451687FF05C0CE0101960E94EF
:102B6000AD04EBCFCE0101960E94E113288B398B87
:102B70004A8B5B8B6C8B7D8B8E8B9F8B40E060E0F8
:102B8000CE0140960E94A40BCE0101960E94C9037B
:102B9000CE0101960E94C90380E090E0A2960FB694
:102BA000F894DEBF0FBECDBFDF91CF911F91089586
:102BB0005058BB27AA270E94F0150C9485160E9436
:102BC000771638F00E947E1620F039F49F3F19F4F2
:102BD00026F40C9474160EF4E095E7FB0C946E1634
:102BE000E92F0E94961658F3BA17620773078407F5
:102BF000950720F079F4A6F50C94B8160EF4E0953C
:102C00000B2EBA2FA02D0B01B90190010C01CA01A6
:102C1000A0011124FF27591B99F0593F50F4503E51
:102C200068F11A16F040A22F232F342F4427585F43
:102C3000F3CF469537952795A795F0405395C9F75B
:102C40007EF41F16BA0B620B730B840BBAF0915013
:102C5000A1F0FF0FBB1F661F771F881FC2F70EC0B2
:102C6000BA0F621F731F841F48F487957795679585
:102C7000B795F7959E3F08F0B0CF9395880F08F071
:102C80009927EE0F9795879508950E944A1608F4A4
:102C900081E00895990F0008550FAA0BE0E8FEEFB8
:102CA00016161706E807F907C0F012161306E40710
:102CB000F50798F0621B730B840B950B39F40A2609
:102CC00061F0232B242B252B21F408950A2609F4E7
:102CD000A140A6958FEF811D811D089597F99F67EB
:102CE00080E870E060E008959FEF80EC0895002494
:102CF0000A941616170618060906089500240A9461
:102D000012161306140605060895092E0394000CE6
:102D100011F4882352F0BB0F40F4BF2B11F460FF75
:102D200004C06F5F7F4F8F4F9F4F089557FD90589E
:102D3000440F551F59F05F3F71F04795880F97FB7F
:102D4000991F61F09F3F79F0879508951216130639
:102D50001406551FF2CF4695F1DF08C01616170668
:102D60001806991FF1CF869571056105089408959D
:102D7000E894BB2766277727CB0197F908950E942F
:102D80004A1608F48FEF0895DB018F939F930E94FA
:102D90004317BF91AF91A29F800D911DA39F900DEE
:102DA000B29F900D11240895AA1BBB1B51E107C0CF
:102DB000AA1FBB1FA617B70710F0A61BB70B881FCB
:102DC000991F5A95A9F780959095BC01CD0108955A
:102DD00097FB072E16F4009407D077FD09D00E94C8
:102DE000D41607FC05D03EF4909581959F4F089529
:102DF000709561957F4F0895A1E21A2EAA1BBB1B07
:102E0000FD010DC0AA1FBB1FEE1FFF1FA217B307B6
:102E1000E407F50720F0A21BB30BE40BF50B661FCC
:102E2000771F881F991F1A9469F760957095809590
:102E300090959B01AC01BD01CF010895052E97FB34
:102E40001EF400940E94351757FD07D00E94FC160F
:102E500007FC03D04EF40C943517509540953095EF
:102E600021953F4F4F4F5F4F0895909580957095F6
:102E700061957F4F8F4F9F4F0895EE0FFF1F059075
:102E8000F491E02D09940E948517A59F900DB49FA1
:102E9000900DA49F800D911D112408952F923F92B3
:102EA0004F925F926F927F928F929F92AF92BF925A
:102EB000CF92DF92EF92FF920F931F93CF93DF9306
:102EC000CDB7DEB7CA1BDB0B0FB6F894DEBF0FBE63
:102ED000CDBF09942A88398848885F846E847D84B0
:102EE0008C849B84AA84B984C884DF80EE80FD80B2
:102EF0000C811B81AA81B981CE0FD11D0FB6F89428
:102F0000DEBF0FBECDBFED010895A29FB001B39FFC
:102F1000C001A39F700D811D1124911DB29F700DE2
:102F2000811D1124911D08950E94A8170C948516E7
:102F30000E947E1658F00E94771640F029F45F3FF9
:102F400029F00C946E1651110C94B9160C94741649
:102F50000E94961668F39923B1F3552391F3951BBC
:102F6000550BBB27AA2762177307840738F09F5FAA
:102F70005F4F220F331F441FAA1FA9F335D00E2E17
:102F80003AF0E0E832D091505040E695001CCAF784
:102F90002BD0FE2F29D0660F771F881FBB1F261747
:102FA00037074807AB07B0E809F0BB0B802DBF011E
:102FB000FF2793585F4F3AF09E3F510578F00C94ED
:102FC0006E160C94B9165F3FE4F3983ED4F38695E1
:102FD00077956795B795F7959F5FC9F7880F911D0E
:102FE0009695879597F90895E1E0660F771F881FFA
:102FF000BB1F621773078407BA0720F0621B730BAD
:10300000840BBA0BEE1F88F7E09508950E940D1807
:103010006894B1110C94B91608950E949E1688F018
:103020009F5798F0B92F9927B751B0F0E1F0660F8C
:10303000771F881F991F1AF0BA95C9F714C0B130CD
:1030400091F00E94B816B1E008950C94B816672F5D
:10305000782F8827B85F39F0B93FCCF386957795FC
:103060006795B395D9F73EF49095809570956195E5
:103070007F4F8F4F9F4F0895E89409C097FB3EF410
:1030800090958095709561957F4F8F4F9F4F9923B5
:10309000A9F0F92F96E9BB279395F6958795779533
:1030A0006795B795F111F8CFFAF4BB0F11F460FFF3
:1030B0001BC06F5F7F4F8F4F9F4F16C0882311F04B
:1030C00096E911C0772321F09EE8872F762F05C05F
:1030D000662371F096E8862F70E060E02AF09A95FA
:1030E000660F771F881FDAF7880F9695879597F9EF
:1030F00008950E948C180C9485160E94771638F05B
:103100000E947E1620F0952311F00C946E160C94FC
:10311000741611240C94B9160E94961670F3959F9C
:10312000C1F3950F50E0551F629FF001729FBB27BE
:10313000F00DB11D639FAA27F00DB11DAA1F649F5A
:103140006627B00DA11D661F829F2227B00DA11D0D
:10315000621F739FB00DA11D621F839FA00D611D93
:10316000221F749F3327A00D611D231F849F600DB4
:10317000211D822F762F6A2F11249F5750409AF0DD
:10318000F1F088234AF0EE0FFF1FBB1F661F771F69
:10319000881F91505040A9F79E3F510580F00C9434
:1031A0006E160C94B9165F3FE4F3983ED4F38695FF
:1031B00077956795B795F795E7959F5FC1F7FE2BD4
:1031C000880F911D9695879597F90895FA01EE0F4E
:1031D000FF1F309621053105A1F16115710561F4DC
:1031E0008038BFE39B0749F168949038810561F00E
:1031F0008038BFEF9B0741F099234AF5FF3FE10577
:103200003105210519F1E8940894E795D901AA231D
:1032100029F4AB2FBE2FF85FD0F310C0FF5F70F41E
:10322000A695E0F7F73950F019F0FF3A38F49F7798
:103230009F930DD00F9007FC9058089546F00C9482
:10324000741660E070E080E89FE308954FE79F7791
:103250005F934F933F932F930E94E1192F913F91DA
:103260004F915F910E9479180C943E1929F416F041
:103270000C946E160C94B8160C9474160E949E163C
:10328000A8F39638A0F707F80F92E8942BE33AEAF0
:1032900048EB5FE70E948F180F920F920F924DB785
:1032A0005EB70F920E94291AEEE8F0E00E947019B2
:1032B0004F915F91EF91FF91E595EE1FFF1F49F050
:1032C000FE57E0684427EE0F441FFA95E1F7419559
:1032D000550B0E94A3190F9007FE0C94971908959F
:1032E000DF93CF931F930F93FF92EF92DF927B01B7
:1032F0008C01689406C0DA2EEF010E948C18FE0142
:10330000E894A5912591359145915591A6F3EF014A
:103310000E94F015FE019701A801DA9469F7DF9089
:10332000EF90FF900F911F91CF91DF9108959B0136
:10333000AC0160E070E080E89FE30C9494170C947B
:103340006E160C945D1A0E949E16D8F39923C9F349
:10335000940F511DA3F39150504094F059F08823DD
:1033600032F0660F771F881F91505040C1F79E3F83
:1033700051052CF7880F911D9695879597F908951B
:103380005F3FACF0983E9CF0BB278695779567959C
:10339000B79508F4B1609395C1F7BB0F58F711F4D6
:1033A00060FFE8CF6F5F7F4F8F4F9F4FE3CF0C944D
:1033B000B91616F00C945D1A0C94741668940C945B
:1033C0006E160E949E16A8F39923C1F3AEF3DF9305
:1033D000CF931F930F93FF92C92FDD2788232AF0E5
:1033E0002197660F771F881FDAF720E030E040E86A
:1033F0005FEB9FE3883920F0803E38F021968F778D
:103400000E94D915E6EBF0E004C00E94D915E3EE66
:10341000F0E00E9470198B01BE01EC01FB2E6F578A
:1034200071097595771F880B990B0E943E1828E14A
:1034300032E741E35FE30E948C18AF2D9801AE01A3
:10344000FF900F911F91CF91DF910E94F0150C9486
:103450008516FA01DC01AA0FBB1F9B01AC01BF5707
:1034600028F4222733274427507820C0B75190F4FE
:10347000AB2F0024469537952795011CA395D2F3D1
:10348000002071F0220F331F441FB395DAF30ED0E2
:103490000C94D81561307105A0E88A07B94630F45C
:1034A0009B01AC016627772788279078309621F01A
:1034B000208331834283538308959F3F31F091509D
:1034C00020F4879577956795B795880F911D969508
:1034D000879597F908950F931F93CF93DF938230C9
:1034E000910510F482E090E0E091DF01F091E001BD
:1034F00020E030E0A0E0B0E0309719F14081518148
:103500000281138148175907C8F08417950769F499
:10351000109731F012960C93129713961C9327C0B4
:103520000093DF011093E00122C02115310519F04D
:103530004217530718F49A01BD01EF01DF01F801AA
:10354000DBCF21153105F9F0281B390B243031056B
:1035500080F48A819B816115710521F0FB019383C1
:10356000828304C09093E0018093DF01FE013296D4
:1035700044C0FE01E20FF31F819391932250310961
:10358000398328833AC02091DD013091DE01232B5D
:1035900041F420910701309108013093DE0120931E
:1035A000DD0120910501309106012115310541F41D
:1035B0002DB73EB74091090150910A01241B350BEC
:1035C000E091DD01F091DE01E217F307A0F42E1B7C
:1035D0003F0B2817390778F0AC014E5F5F4F241777
:1035E000350748F04E0F5F1F5093DE014093DD0119
:1035F0008193919302C0E0E0F0E0CF01DF91CF91A1
:103600001F910F910895CF93DF93009709F481C024
:10361000FC01329713821282A091DF01B091E00188
:10362000109781F420813181820F931F2091DD0159
:103630003091DE012817390751F5F093DE01E09350
:10364000DD0167C0ED0120E030E0CE17DF0740F478
:103650004A815B819E0141155105F1F0EA01F5CFE8
:10366000D383C28340815181840F951FC817D90726
:1036700059F488819981840F951F029691838083E4
:103680008A819B81938382832115310529F4F093EC
:10369000E001E093DF013DC0E901FB83EA8349914A
:1036A0005991C40FD51FEC17FD0761F480819181FA
:1036B000840F951F0296E901998388838281938103
:1036C0009B838A83E0E0F0E012968D919C911397A2
:1036D000009719F0FD01DC01F7CF8D919C911197B6
:1036E0009D012E5F3F4F820F931F2091DD0130918E
:1036F000DE012817390769F4309729F41092E001A8
:103700001092DF0102C013821282B093DE01A093F7
:10371000DD01DF91CF910895283008F027E03327AD
:10372000DA01990F311D87FD9160009661057105E1
:1037300039F432602E5F3D9330E32A95E1F7089526
:103740009F3F30F080387105610509F03C5F3C5FB8
:103750003D93913008F08068911DDF93CF931F93C4
:103760000F93FF92EF92192F987F9695E92F9695D8
:103770009695E90FFF27EE58FE4F99273327EE2441
:10378000FF24A701E70105900894079428F4360F59
:10379000E71EF81E491F511D660F771F881F991FCE
:1037A0000694A1F70590079428F4E70EF81E491F28
:1037B000561FC11D770F881F991F661F0694A1F71A
:1037C0000590079428F4F80E491F561FC71FD11DF6
:1037D000880F991F661F771F0694A1F7059007941D
:1037E00020F4490F561FC71FD81F990F661F771F58
:1037F000881F0694A9F784911095177041F0D6950B
:10380000C79557954795F794E7941A95C1F7E8E15E
:10381000F1E0689415901591359165919591059019
:103820007FE27395E118F10A430B560BC90BD009DF
:10383000C0F7E10CF11E431F561FC91FD01D7EF4B7
:10384000703311F48A95E6CFE894015030F0080FF8
:103850000AF40027021708F4202F2395022F7A3349
:1038600028F079E37D932A95E9F710C07D932A9596
:1038700089F6069497956795379517951794E118EB
:10388000F10A430B560BC90BD00998F023957E9192
:1038900073957A3308F070E37C932013B8F77E9128
:1038A00070617D9330F0839571E37D9370E32A9589
:1038B000E1F71124EF90FF900F911F91CF91DF91CD
:1038C000992787FD90950895FC01059061507040FF
:1038D0000110D8F7809590958E0F9F1F0895FC01D9
:1038E0006150704001900110D8F7809590958E0F2F
:1038F0009F1F08950F931F93CF93DF93FB012381A5
:1039000021FD03C08FEF9FEF2CC022FF16C0468120
:103910005781248135814217530744F4A081B18136
:103920009D012F5F3F4F318320838C932681378108
:103930002F5F3F4F3783268314C08B01EC01FB01BF
:103940000084F185E02D0995892BE1F6D8011696C2
:103950008D919C911797019617969C938E9316972D
:10396000CE01DF91CF911F910F910895AEE0B0E0AD
:10397000ECEBFCE10C945C170D891E8986E08C83CE
:103980001A8309838FEF9FE79E838D83AE01475E85
:103990005F4F6F89788DCE0101960E946410EF8190
:1039A000F885E00FF11F10822E96E4E00C94781752
:1039B000FA01AA27283051F1203181F1E8946F9360
:1039C0006E7F6E5F7F4F8F4F9F4FAF4FB1E03ED006
:1039D000B4E03CD0670F781F891F9A1FA11D680FA4
:1039E000791F8A1F911DA11D6A0F711D811D911DD7
:1039F000A11D20D009F468943F912AE0269F11244C
:103A00003019305D3193DEF6CF010895462F4770AF
:103A1000405D4193B3E00FD0C9F7F6CF462F4F700A
:103A2000405D4A3318F0495D31FD4052419302D068
:103A3000A9F7EACFB4E0A69597958795779567950E
:103A4000BA95C9F700976105710508959B01AC010E
:103A50000A2E06945795479537952795BA95C9F735
:103A6000620F731F841F951FA01D0895F894FFCF48
:103A700001000020420000E10120000000DC42F6CD
:103A800014E94210F1F64213D0024360970A43173B
:103A9000D5124341901B4354D02443379D2E4349B4
:103AA000FF38436AFF434300A74F4300005C43F6DF
:103AB00014694310F1764313D0824360978A431709
:103AC000D5924341909B4354D0A443379DAE434984
:103AD000FFB8436AFFC34300A7CF430000DC43F6AF
:103AE00014E94310F1F64313D0024460970A4417D7
:103AF000D5124441901B4454D02444379D2E444950
:103B0000FF38446AFF434400A74F4400005C44254B
:103B10002E3266706F00252E3166706F002564634B
:103B20006D001B5B324A1B5B3B4800257500256915
:103B3000002563003031323334353637383961622D
:063B4000636465660000ED
:00000001FF
