:100000000C9400010C941D010C941D010C941D0115
:100010000C941D010C941D010C941D010C941D01E8
:100020000C941D010C941D010C941D010C941D01D8
:100030000C941D010C941D010C941D010C941D01C8
:100040000C941D010C941D010C941D010C941D01B8
:100050000C941D010C941D010C941D010C941D01A8
:100060000C941D010C941D010C941D010C941D0198
:100070000C941D010C941D010C941D010763423664
:10008000B79BD8A71A39685618AEBAAB558C1D3C29
:10009000B7CC5763BD6DEDFD753EF6177231BF00ED
:1000A0000000803F08000000BE922449123EABAA27
:1000B000AA2ABECDCCCC4C3E00000080BEABAAAA82
:1000C000AA3E00000000BF000000803F00000000CA
:1000D00000084178D3BB4387D1133D190E3CC3BD03
:1000E0004282AD2B3E68EC8276BED98FE1A93E4CB0
:1000F00080EFFFBE01C4FF7F3F00000000006E6183
:100100006E00696E660000407A10F35A00A0724ECD
:1001100018090010A5D4E80000E87648170000E4AC
:100120000B54020000CA9A3B000000E1F5050000F4
:1001300080969800000040420F000000A086010059
:100140000000102700000000E80300000000640029
:10015000000000000A000000000001000000000094
:100160002C76D888DC674F0823DFC1DFAE59E1B1B8
:10017000B796E5E3E453C63AE651997696E8E6C2C7
:100180008426EB898C9B62ED407C6FFCEFBC9C9FCE
:1001900040F2BAA56FA5F490055A2AF75C936B6CF0
:1001A000F9676DC11BFCE0E40D47FEF520E6B500E4
:1001B000D0ED902E0300943577050080841E080052
:1001C00000204E0A000000C80C333333330F986E02
:1001D00012831141EF8D2114893BE65516CFFEE6BF
:1001E000DB18D1844B381BF77C1D901DA4BBE42485
:1001F000203284725E228100C9F124ECA1E53D2702
:1002000011241FBECFEFD8E0DEBFCDBF11E0A0E0CC
:10021000B1E0E8EAF0E202C005900D92AC32B1071D
:10022000D9F721E0ACE2B1E001C01D92A033B207E2
:10023000E1F70E94D2080C9452100C9400000F9326
:100240001F93CF93DF931F92CDB7DEB7CE010196F8
:100250000E94B30166E0CE0101960E94BC018C01B0
:10026000CE0101960E94B901C80196958795969591
:1002700087950F90DF91CF911F910F910895DF9295
:10028000EF92FF920F931F93CF93DF9320E030E024
:1002900070E0EB0121972C173D07E4F4FC0141E0ED
:1002A0007B01E21AF30ADF01A81BB90BEA16FB0671
:1002B00064F05191D080D516B0F78F01015011092B
:1002C000D801DC92508340E0EECF411103C02F5F94
:1002D0003F4FE1CFDF91CF911F910F91FF90EF90B2
:1002E000DF9008954F925F926F927F92AF92BF928C
:1002F000CF92DF92EF92FF920F931F93CF93DF93F2
:10030000CDB7DEB729013A019B01AC0124193509AB
:100310004609570989899A89AB89BC89BC01CD01F5
:100320006A197B098C099D090E949B0CA801970101
:1003300024193509460957090E94BF0CCA01B901A1
:100340006A0D7B1D8C1D9D1DDF91CF911F910F911B
:10035000FF90EF90DF90CF90BF90AF907F906F9025
:100360005F904F90089510927C0086E880937A0009
:10037000089510927A00089580917C00807E809389
:100380007C0080917C006770682B60937C0080917A
:100390007A00806480937A0080917A0084FFFCCF99
:1003A00080917A00806180937A002091780080911A
:1003B000790090E0982F8827820F911D0895CF92A1
:1003C000DF92EF92FF920F93CF93DF93CDB7DEB71B
:1003D00028970FB6F894DEBF0FBECDBF6B01CA01E0
:1003E000B9019E012F5F3F4F79010130C1F42CE527
:1003F0003FE842E250E40E943C099F938F937F9331
:100400006F9386E091E09F938F93FF92EF920E940B
:10041000D20F0FB6F894DEBF0FBECDBF12C00E9440
:10042000510D7F936F938DE091E09F938F93FF9297
:10043000EF920E94D20F0F900F900F900F900F909D
:100440000F9021E040E0B701C6010E949702289674
:100450000FB6F894DEBF0FBECDBFDF91CF910F91E5
:10046000FF90EF90DF90CF900895CB010C9489021C
:10047000CF93DF93EC01CB01188219821A821B8281
:100480005D834C8318861986BA010E94B2044C81A0
:100490005D8160E081E00E946A0480E190E00E945A
:1004A000870D9F838E83DF91CF910895FC01868114
:1004B00097810C941F0E1F93CF93DF93EC01162F9F
:1004C0002C813D81462F6B8181E00E9472041A834A
:1004D000DF91CF911F9108951F93CF93DF93EC018C
:1004E000162F2C813D814A8181E00E9472041B837A
:1004F000DF91CF911F910895FC01862F603240F467
:10050000618364817581803108F0805D0C94A5045D
:100510000895CF93DF93EC018C819D810E945E044E
:1005200018826981CE01DF91CF910C947C026F9289
:100530007F928F929F92AF92BF92CF92DF92EF9273
:10054000FF920F931F93CF93DF936115710509F409
:1005500076C0E22EF42E8B01EC01CB010E940D053A
:100560006C017A808B8060E0CE010E945B0260E0CB
:10057000CE010E946C02EE2019F0CE010E94890289
:100580002FE12F1508F45BC04F2D50E0C6019927CD
:1005900020E230E0241B350B281739070CF44FC03C
:1005A0009C2C6C817D81EFE0EF1548F1840F951F45
:1005B000409724F080E1E82EEF1801C0EC2C8F2D3D
:1005C0000E94A504602E58016C817D818A2D8619B8
:1005D0008E1530F4F50181915F010E94AC04F4CFD7
:1005E00080E40E94A504E914E0F46C817D81F801A7
:1005F000EE0DF11D80810E94AC04E394F4CF80E302
:100600008F0D0E94A504E02E58018A2D8E198915A0
:1006100040F46C817D81F50181915F010E94AC0401
:10062000F4CF6981CE010E947C02672DCE010E9429
:100630005B02682DCE010E946C02FC0CF882DF91F7
:10064000CF911F910F91FF90EF90DF90CF90BF90CF
:10065000AF909F908F907F906F900895EF92FF9250
:100660000F931F93CF93DF938C016830D0F4411523
:100670005105B9F0EA01862FF80164817581880F70
:10068000880F880F0E949D047E01F8E0EF0EF11C98
:10069000F8016481758189910E94AC04CE15DF0553
:1006A000B9F7DF91CF911F910F91FF90EF900895CF
:1006B000CF93DF93EC016115710521F020E04881B3
:1006C0000E949702CE01DF91CF9108950F931F935F
:1006D000CF93DF9300D0CDB7DEB78C011A82198299
:1006E0006983BE016F5F7F4F0E945803C8010F905E
:1006F0000F90DF91CF911F910F910895CF93DF93CA
:10070000EC017F936F9382E191E09F938F938F81B0
:100710008F938E818F930E94D20F6E817F81CE0145
:100720000E9458030F900F900F900F900F900F9012
:10073000CE01DF91CF910895CF93DF93EC017F93AA
:100740006F9385E191E09F938F938F818F938E813B
:100750008F930E94D20F6E817F81CE010E94580339
:100760000F900F900F900F900F900F90CE01DF9190
:10077000CF910895CF93DF93EC011F926F9388E19F
:1007800091E09F938F938F818F938E818F930E949F
:10079000D20F6E817F81CE010E9458030F900F907F
:1007A0000F900F900F900F90CE01DF91CF91089591
:1007B0000F931F93CF93DF93EC018B0161157105AC
:1007C00061F0288581E028274985CE010E949702A3
:1007D0008885882311F018861986C801DF91CF918A
:1007E0001F910F910895603220F4FC01618721E090
:1007F000208708950F931F93CF93DF93EC01888197
:10080000082F681708F4062F801B888310E0101744
:1008100031F060E2CE010E9466031F5FF8CF88814D
:10082000811B8883DF91CF911F910F910895FC0167
:1008300080818062808384E08A95F1F780818F7D5A
:1008400080830895EF92FF920F931F93CF93DF93CE
:10085000162F042FE90190E8899F700111248881E7
:10086000817288832881862F90E034E09595879562
:100870003A95E1F7880F991F8E29822B8883CE0144
:100880000E94170488818172888388811F70110FEC
:100890001E29182B1883CE010E94170480E08017B0
:1008A00031F09AE19A95F1F700C08F5FF8CFDF91B0
:1008B000CF911F910F91FF90EF9008959C0144EA12
:1008C00061E080E00C9422049C0144EA62E080E054
:1008D0000C9422049A01880F6460682B44E080E045
:1008E0000C942204660F4860462B54E0859FC0019B
:1008F0001124642F682B44E080E00C9422049A01B8
:1009000044E0649FB0011124606148E0849FC0010D
:100910001124682B44E080E00C9422049A0148E002
:10092000649FB0011124606240E1849FC0011124E2
:10093000682B44E080E00C9422049B018F77682FA1
:10094000606444E080E00C9422049B01682F60689E
:1009500044E080E00C9422049B0144E0682F81E095
:100960000C942204CF93DF93FC01EB018FE295E717
:100970000197F1F700C0000080818172808380813F
:100980008FEF8083888181728883888186608883E5
:1009900088818E7F8883CB010E94170487E090E2D4
:1009A0000197F1F700C00000CE010E94170487EC08
:1009B00090E00197F1F700C00000CE010E941704FB
:1009C0009AE69A95F1F700C08881817288838881C0
:1009D00084608883CE010E9417048AE68A95F1F725
:1009E00000C09E0144E06CE280E00E9422049E016F
:1009F00040E060E080E00E947204CE010E945E044C
:100A0000AE0160E081E00E946A049E0140E060E087
:100A100081E0DF91CF910C947204FC0131969F012B
:100A2000281B390B41914111FACFC90108950F9349
:100A30001F93CF93DF93FC01CB011786009739F00A
:100A40008F01015F1F4F2EE0C42FD0E007C080E36D
:100A50008687CF010E9615C0222371F0BE010E9439
:100A6000AB0CDC01A55EBE4F8C91D8018E938D013D
:100A70002150CB01009781F7822F90E001968E0FD5
:100A80009F1FDF91CF911F910F91089520E030E0DB
:100A90002817390749F0EFECF7E03197F1F700C07C
:100AA00000002F5F3F4FF4CF0895A0E1B0E0EBE5E9
:100AB000F5E00C94F80C7C011B016A01FC01178223
:100AC0001682838181FF44C39E012F5F3F4F39010E
:100AD000F7019381F10193FD859193FF81911F01AE
:100AE000882309F431C3853239F493FD859193FF4E
:100AF00081911F01853239F4B70190E00E94960F71
:100B000056016501E5CF10E0512C912CFFE1F9155C
:100B1000D8F08B3279F038F4803279F08332A1F456
:100B2000F92DF0612EC08D3261F0803369F4292DEA
:100B300021602DC0392D3260932E892D8460982E2E
:100B40002AC0E92DE86015C097FC2DC020ED280FC4
:100B50002A3088F496FE06C03AE0139F200D112437
:100B6000122F19C08AE0589E200D1124522EE92D13
:100B7000E0629E2E10C08E3231F496FCE5C2F92D53
:100B8000F0649F2E08C08C3621F4292D2068922E07
:100B900002C0883641F4F10193FD859193FF819164
:100BA0001F018111B3CF9BEB980F933020F4992D47
:100BB0009061805E07C09BE9980F933008F066C192
:100BC000992D9F7E96FF16E09F73992E853619F416
:100BD0009064992E08C0863621F4392F3068932E00
:100BE00002C01111115097FE07C01C3350F4442469
:100BF0004394410E27E00BC0183038F027E017E08F
:100C000005C027E09CE3492E02C0212F412C56014C
:100C100084E0A80EB11CF60160817181828193810C
:100C2000042DA3010E94A80E6C01F981FC87F0FF3E
:100C300002C0F3FF06C091FC06C092FE06C000E2AF
:100C400005C00DE203C00BE201C000E08C858C7092
:100C500019F001115AC29BC297FE10C04C0CFC85C2
:100C6000F4FF04C08A81813309F44A94141474F5A2
:100C700028E0241578F588E0482E2CC096FC2AC080
:100C8000812F90E08C159D059CF03CEFC3163FEF43
:100C9000D30674F0892D8068982E0AC0E2E0F0E057
:100CA000EC0FFD1FE10FF11D8081803319F411500D
:100CB0001111F4CF97FE0EC044244394410E812FAE
:100CC00090E0C816D9062CF41C1904C0442443949F
:100CD00001C010E097FE06C01C141D0434F4C601C8
:100CE000019605C085E090E002C081E090E001112E
:100CF0000196112331F0212F30E02F5F3F4F820FFB
:100D0000931F252D30E08217930714F4581A01C061
:100D1000512C892D897049F4552039F0B70180E2B2
:100D200090E00E94960F5A94F7CF002329F0B70164
:100D3000802F90E00E94960F93FC09C0552039F057
:100D4000B70180E390E00E94960F5A94F7CF97FE88
:100D50004CC04601D7FE02C0812C912CC6018819D7
:100D60009909F301E80FF91FFE87ED879601241911
:100D70003109388B2F87012F10E01195019511094A
:100D80003FEF8316930629F4B7018EE290E00E94AC
:100D9000960FC814D9044CF08F8598898815990549
:100DA00024F4ED85FE85818101C080E3F1E08F1A96
:100DB00091082D853E852F5F3F4F3E872D878016FA
:100DC00091062CF0B70190E00E94960FD9CFC8147D
:100DD000D90441F49A81963320F4953319F43C8573
:100DE00034FF81E3B70190E04EC08A81813319F06E
:100DF0009C859F7E9C87B70190E00E94960F111101
:100E000005C094FC18C085E690E017C0B7018EE2DB
:100E100090E00E94960F1E5F82E001E0080FF30150
:100E2000E80FF11D8081B70190E00E94960F802F9E
:100E30000113F3CFE6CF85E490E0B7010E94960F4F
:100E4000D7FC06C0C114D10441F4EC85E4FF05C011
:100E5000D194C194D1088DE201C08BE2B70190E03A
:100E60000E94960F80E32AE0C216D1042CF08F5F17
:100E7000FAE0CF1AD108F7CFB70190E00E94960FA1
:100E8000B701C601C0960E94960F54C1833631F057
:100E9000833779F0833509F056C020C0560132E01F
:100EA000A30EB11CF6018081898301E010E063018B
:100EB00012C05601F2E0AF0EB11CF601C080D18025
:100EC00096FE03C0612F70E002C06FEF7FEFC60196
:100ED0000E948B0F8C01F92DFF7714C0560122E080
:100EE000A20EB11CF601C080D18096FE03C0612F16
:100EF00070E002C06FEF7FEFC6010E94800F8C018F
:100F0000F92DF0689F2EF3FD1AC0852D90E008178B
:100F10001907A8F4B70180E290E00E94960F5A9456
:100F2000F4CFF60197FC859197FE81916F01B7018F
:100F300090E00E94960F51105A940150110901152A
:100F4000110579F7F7C0843611F0893661F556013D
:100F500097FE09C024E0A20EB11CF60160817181E8
:100F6000828193810AC0F2E0AF0EB11CF60160816C
:100F70007181072E000C880B990BF92DFF769F2E9F
:100F800097FF09C090958095709561957F4F8F4F21
:100F90009F4FF0689F2E2AE030E0A3010E94F40FDB
:100FA000C82EC6183FC0092D853721F40F7E2AE0D0
:100FB00030E01DC0097F8F3691F018F4883559F064
:100FC000C3C0803719F0883711F0BEC0006104FF3C
:100FD00009C0046007C094FE08C0066006C028E08F
:100FE00030E005C020E130E002C020E132E05601EF
:100FF00007FF09C084E0A80EB11CF6016081718171
:101000008281938108C0F2E0AF0EB11CF6016081CD
:10101000718180E090E0A3010E94F40FC82EC618F1
:101020000F77902E96FE0BC0092D0E7FC11650F43F
:1010300094FE0AC092FC08C0092D0E7E05C0DC2C6F
:10104000092D03C0DC2C01C0D12E04FF0DC0FE0110
:10105000EC0DF11D8081803311F4097E09C002FF7F
:1010600006C0D394D39404C0802F867809F0D3941B
:1010700003FD11C000FF06C01C2DD51480F4150D12
:101080001D190DC0D51458F4B70180E290E00E94FC
:10109000960FD394F7CFD51410F45D1801C0512CDE
:1010A00004FF10C0B70180E390E00E94960F02FF9A
:1010B00017C001FD03C088E790E002C088E590E01A
:1010C000B7010CC0802F867859F001FF02C08BE277
:1010D00001C080E207FD8DE2B70190E00E94960F0B
:1010E000C11638F4B70180E390E00E94960F1150CA
:1010F000F7CFCA94F301EC0DF11D8081B70190E0A8
:101100000E94960FC110F5CF15C0F4E0F51560F5FB
:1011100084E0581A93FE1FC0011127C02C8523FFBD
:101120002AC00EEF10E0392D3071932EF801849112
:10113000811124C0552009F4E4CCB70180E290E08D
:101140000E94960F5A94F6CFF7018681978126C0A8
:101150008FEF9FEF23C0B70180E290E00E94960FCF
:101160005A945110F8CFD8CF512CB701802F90E06E
:101170000E94960FD3CF02E011E0D5CF911080529C
:10118000B70190E00E94960F0F5F1F4FCFCF23E073
:10119000251510F483E0BDCF512CC0CF6096E2E15D
:1011A0000C94140DCF93DF93CDB7DEB7A4970FB691
:1011B000F894DEBF0FBECDBF0E9884B1836084B9B2
:1011C0007E012AE1E20EF11C48E250E067E270E0A5
:1011D000C7010E94380288248A9483E0982EA12CAB
:1011E000B12C8E010F5F1F4F68010E941F01F80193
:1011F00081938F01FFEF29EF80E0F1502040804084
:10120000E1F700C000000E151F0579F769E1C6017E
:101210000E943F012D8530E0A8E8B3E10E94DE0C7A
:10122000A50194010E94BF0CCA01B9010E94B00936
:1012300020E030E04AE754E40E943C092EE03DE221
:101240004AE95FEB0E94A90A22EF32ED4DED51E42D
:101250000E943C0A9B01AC0100E0B701CE018496DC
:101260000E94DF019FE3EEECF0E09150E040F0409F
:10127000E1F700C00000B5CF0E9450090C94020AAB
:101280000E94FB0958F00E94F40940F029F45F3FE6
:1012900029F00C94EB0951110C94360A0C94F109C5
:1012A0000E94130A68F39923B1F3552391F3951B18
:1012B000550BBB27AA2762177307840738F09F5F77
:1012C0005F4F220F331F441FAA1FA9F335D00E2EE4
:1012D0003AF0E0E832D091505040E695001CCAF751
:1012E0002BD0FE2F29D0660F771F881FBB1F261714
:1012F00037074807AB07B0E809F0BB0B802DBF01EB
:10130000FF2793585F4F3AF09E3F510578F00C94B9
:10131000EB090C94360A5F3FE4F3983ED4F38695CC
:1013200077956795B795F7959F5FC9F7880F911DDA
:101330009695879597F90895E1E0660F771F881FC6
:10134000BB1F621773078407BA0720F0621B730B79
:10135000840BBA0BEE1F88F7E0950895E89409C056
:1013600097FB3EF490958095709561957F4F8F4FD8
:101370009F4F9923A9F0F92F96E9BB279395F695EE
:10138000879577956795B795F111F8CFFAF4BB0F6C
:1013900011F460FF1BC06F5F7F4F8F4F9F4F16C0D0
:1013A000882311F096E911C0772321F09EE8872F5A
:1013B000762F05C0662371F096E8862F70E060E016
:1013C0002AF09A95660F771F881FDAF7880F96958F
:1013D000879597F9089597F99F6780E870E060E036
:1013E00008959FEF80EC089500240A9416161706BE
:1013F00018060906089500240A9412161306140606
:1014000005060895092E0394000C11F4882352F068
:10141000BB0F40F4BF2B11F460FF04C06F5F7F4F20
:101420008F4F9F4F089557FD9058440F551F59F007
:101430005F3F71F04795880F97FB991F61F09F3FC1
:1014400079F087950895121613061406551FF2CFEA
:101450004695F1DF08C0161617061806991FF1CF3A
:1014600086957105610508940895E894BB27662761
:101470007727CB0197F908950E944F0A0C94020A2E
:101480000E94F40938F00E94FB0920F0952311F026
:101490000C94EB090C94F10911240C94360A0E9467
:1014A000130A70F3959FC1F3950F50E0551F629F8B
:1014B000F001729FBB27F00DB11D639FAA27F00DAD
:1014C000B11DAA1F649F6627B00DA11D661F829FD4
:1014D0002227B00DA11D621F739FB00DA11D621FB9
:1014E000839FA00D611D221F749F3327A00D611DD6
:1014F000231F849F600D211D822F762F6A2F1124B8
:101500009F5750409AF0F1F088234AF0EE0FFF1FEA
:10151000BB1F661F771F881F91505040A9F79E3F41
:10152000510580F00C94EB090C94360A5F3FE4F30C
:10153000983ED4F3869577956795B795F795E79597
:101540009F5FC1F7FE2B880F911D9695879597F9A0
:101550000895FA01EE0FFF1F309621053105A1F124
:101560006115710561F48038BFE39B0749F1689408
:101570009038810561F08038BFEF9B0741F09923D7
:101580004AF5FF3FE1053105210519F1E89408947A
:10159000E795D901AA2329F4AB2FBE2FF85FD0F32A
:1015A00010C0FF5F70F4A695E0F7F73950F019F01E
:1015B000FF3A38F49F779F930DD00F9007FC905817
:1015C000089546F00C94F10960E070E080E89FE334
:1015D00008954FE79F775F934F933F932F930E9418
:1015E000A40B2F913F914F915F910E943C0A0C9464
:1015F000010B29F416F00C94EB090C94350A0C94A9
:10160000F1090E941B0AA8F39638A0F707F80F9279
:10161000E8942BE33AEA48EB5FE70E94520A0F9204
:101620000F920F924DB75EB70F920E94EC0BECE752
:10163000F0E00E94330B4F915F91EF91FF91E595A0
:10164000EE1FFF1F49F0FE57E0684427EE0F441FCE
:10165000FA95E1F74195550B0E94660B0F9007FE36
:101660000C945A0B0895DF93CF931F930F93FF921F
:10167000EF92DF927B018C01689406C0DA2EEF01B5
:101680000E944F0AFE01E894A5912591359145915C
:101690005591A6F3EF010E94380CFE019701A801B5
:1016A000DA9469F7DF90EF90FF900F911F91CF913F
:1016B000DF9108959B01AC0160E070E080E89FE35A
:1016C0000C943C090C94EB090C948D0C0E941B0AA1
:1016D000D8F39923C9F3940F511DA3F391505040AF
:1016E00094F059F0882332F0660F771F881F9150CD
:1016F0005040C1F79E3F51052CF7880F911D9695DC
:10170000879597F908955F3FACF0983E9CF0BB2712
:10171000869577956795B79508F4B1609395C1F76D
:10172000BB0F58F711F460FFE8CF6F5F7F4F8F4F0B
:101730009F4FE3CF0C94360A16F00C948D0C0C944A
:10174000F10968940C94EB090E941B0AA8F39923F1
:10175000C1F3AEF3DF93CF931F930F93FF92C92F83
:10176000DD2788232AF02197660F771F881FDAF775
:1017700020E030E040E85FEB9FE3883920F0803ED6
:1017800038F021968F770E94210CE4EAF0E004C043
:101790000E94210CE1EDF0E00E94330B8B01BE01B1
:1017A000EC01FB2E6F5771097595771F880B990B0C
:1017B0000E94B00928E132E741E35FE30E944F0A4B
:1017C000AF2D9801AE01FF900F911F91CF91DF9146
:1017D0000E94380C0C94020AFA01DC01AA0FBB1F0C
:1017E0009B01AC01BF5728F42227332744275078A8
:1017F00020C0B75190F4AB2F00244695379527951C
:10180000011CA395D2F3002071F0220F331F441F57
:10181000B395DAF30ED00C94200C61307105A0E87A
:101820008A07B94630F49B01AC01662777278827E1
:101830009078309621F0208331834283538308953A
:101840005058BB27AA270E94380C0C94020A0E9409
:10185000F40938F00E94FB0920F039F49F3F19F495
:1018600026F40C94F1090EF4E095E7FB0C94EB09D7
:10187000E92F0E94130A58F3BA1762077307840707
:10188000950720F079F4A6F50C94350A0EF4E0954E
:101890000B2EBA2FA02D0B01B90190010C01CA012A
:1018A000A0011124FF27591B99F0593F50F4503ED5
:1018B00068F11A16F040A22F232F342F4427585FC7
:1018C000F3CF469537952795A795F0405395C9F7DF
:1018D0007EF41F16BA0B620B730B840BBAF0915097
:1018E000A1F0FF0FBB1F661F771F881FC2F70EC036
:1018F000BA0F621F731F841F48F487957795679509
:10190000B795F7959E3F08F0B0CF9395880F08F0F4
:101910009927EE0F9795879508959F3F31F0915045
:1019200020F4879577956795B795880F911D9695C3
:10193000879597F90895DB018F939F930E94ED0C93
:10194000BF91AF91A29F800D911DA39F900DB29F5B
:10195000900D11240895AA1BBB1B51E107C0AA1FBB
:10196000BB1FA617B70710F0A61BB70B881F991F40
:101970005A95A9F780959095BC01CD010895052E43
:1019800097FB1EF400940E94D60C57FD07D00E94CE
:101990002F0D07FC03D04EF40C94D60C50954095B7
:1019A000309521953F4F4F4F5F4F0895909580950B
:1019B000709561957F4F8F4F9F4F0895A29FB00103
:1019C000B39FC001A39F700D811D1124911DB29F73
:1019D000700D811D1124911D08950E94DE0CA59F9C
:1019E000900DB49F900DA49F800D911D112408951A
:1019F0002F923F924F925F926F927F928F929F921F
:101A0000AF92BF92CF92DF92EF92FF920F931F930C
:101A1000CF93DF93CDB7DEB7CA1BDB0B0FB6F894BD
:101A2000DEBF0FBECDBF09942A88398848885F84FD
:101A30006E847D848C849B84AA84B984C884DF806E
:101A4000EE80FD800C811B81AA81B981CE0FD11D52
:101A50000FB6F894DEBF0FBECDBFED010895A1E231
:101A60001A2EAA1BBB1BFD010DC0AA1FBB1FEE1F18
:101A7000FF1FA217B307E407F50720F0A21BB30B63
:101A8000E40BF50B661F771F881F991F1A9469F7DF
:101A900060957095809590959B01AC01BD01CF013B
:101AA00008950E94580D6894B1110C94360A089557
:101AB0000E941B0A88F09F5798F0B92F9927B751B9
:101AC000B0F0E1F0660F771F881F991F1AF0BA95E2
:101AD000C9F714C0B13091F00E94350AB1E0089501
:101AE0000C94350A672F782F8827B85F39F0B93FF3
:101AF000CCF3869577956795B395D9F73EF4909595
:101B00008095709561957F4F8F4F9F4F08950F93EC
:101B10001F93CF93DF938230910510F482E090E021
:101B2000E0912E01F0912F0120E030E0A0E0B0E044
:101B3000309719F14081518102811381481759076B
:101B4000C8F08417950769F4109731F012960C933A
:101B5000129713961C9327C000932E0110932F0108
:101B600022C02115310519F04217530718F49A01C4
:101B7000BD01EF01DF01F801DBCF21153105F9F0DF
:101B8000281B390B2430310580F48A819B81611533
:101B9000710521F0FB019383828304C090932F0190
:101BA00080932E01FE01329644C0FE01E20FF31F26
:101BB0008193919322503109398328833AC020912F
:101BC0002C0130912D01232B41F420910201309101
:101BD000030130932D0120932C01209100013091BD
:101BE00001012115310541F42DB73EB740910401A3
:101BF00050910501241B350BE0912C01F0912D0132
:101C0000E217F307A0F42E1B3F0B2817390778F0D3
:101C1000AC014E5F5F4F2417350748F04E0F5F1F32
:101C200050932D0140932C018193919302C0E0E0E9
:101C3000F0E0CF01DF91CF911F910F910895CF93E5
:101C4000DF93009709F481C0FC013297138212825E
:101C5000A0912E01B0912F01109781F42081318144
:101C6000820F931F20912C0130912D0128173907E5
:101C700051F5F0932D01E0932C0167C0ED0120E0B8
:101C800030E0CE17DF0740F44A815B819E014115A9
:101C90005105F1F0EA01F5CFD383C2834081518130
:101CA000840F951FC817D90759F488819981840F2B
:101CB000951F0296918380838A819B81938382837F
:101CC0002115310529F4F0932F01E0932E013DC039
:101CD000E901FB83EA8349915991C40FD51FEC17A1
:101CE000FD0761F480819181840F951F0296E901BF
:101CF00099838883828193819B838A83E0E0F0E0EB
:101D000012968D919C911397009719F0FD01DC01BB
:101D1000F7CF8D919C9111979D012E5F3F4F820FC0
:101D2000931F20912C0130912D012817390769F458
:101D3000309729F410922F0110922E0102C01382C5
:101D40001282B0932D01A0932C01DF91CF910895C1
:101D5000283008F027E03327DA01990F311D87FD7D
:101D6000916000966105710539F432602E5F3D93F4
:101D700030E32A95E1F708959F3F30F080387105F0
:101D8000610509F03C5F3C5F3D93913008F080684D
:101D9000911DDF93CF931F930F93FF92EF92192F13
:101DA000987F9695E92F96959695E90FFF27E05A2B
:101DB000FE4F99273327EE24FF24A701E701059062
:101DC0000894079428F4360FE71EF81E491F511D8A
:101DD000660F771F881F991F0694A1F70590079437
:101DE00028F4E70EF81E491F561FC11D770F881FE4
:101DF000991F661F0694A1F70590079428F4F80E22
:101E0000491F561FC71FD11D880F991F661F771FB7
:101E10000694A1F70590079420F4490F561FC71F99
:101E2000D81F990F661F771F881F0694A9F7849102
:101E30001095177041F0D695C79557954795F7942B
:101E4000E7941A95C1F7E6E0F1E0689415901591D2
:101E500035916591959105907FE27395E118F10AAE
:101E6000430B560BC90BD009C0F7E10CF11E431F01
:101E7000561FC91FD01D7EF4703311F48A95E6CF2A
:101E8000E894015030F0080F0AF40027021708F414
:101E9000202F2395022F7A3328F079E37D932A951A
:101EA000E9F710C07D932A9589F606949795679572
:101EB000379517951794E118F10A430B560BC90B88
:101EC000D00998F023957E9173957A3308F070E3EA
:101ED0007C932013B8F77E9170617D9330F08395E9
:101EE00071E37D9370E32A95E1F71124EF90FF9061
:101EF0000F911F91CF91DF91992787FD90950895BC
:101F0000FC010590615070400110D8F780959095C4
:101F10008E0F9F1F0895FC016150704001900110C9
:101F2000D8F7809590958E0F9F1F08950F931F935C
:101F3000CF93DF93FB01238121FD03C08FEF9FEF40
:101F40002CC022FF16C0468157812481358142175B
:101F5000530744F4A081B1819D012F5F3F4F31832E
:101F600020838C93268137812F5F3F4F37832683D1
:101F700014C08B01EC01FB010084F185E02D099573
:101F8000892BE1F6D80116968D919C9117970196B1
:101F900017969C938E931697CE01DF91CF911F9148
:101FA0000F910895AEE0B0E0E8EDFFE00C94060D6F
:101FB0000D891E8986E08C831A8309838FEF9FE742
:101FC0009E838D83AE01475E5F4F6F89788DCE0112
:101FD00001960E945505EF81F885E00FF11F1082F0
:101FE0002E96E4E00C94220DFA01AA27283051F134
:101FF000203181F1E8946F936E7F6E5F7F4F8F4F3A
:102000009F4FAF4FB1E03ED0B4E03CD0670F781F98
:10201000891F9A1FA11D680F791F8A1F911DA11D7D
:102020006A0F711D811D911DA11D20D009F46894B6
:102030003F912AE0269F11243019305D3193DEF65E
:10204000CF010895462F4770405D4193B3E00FD014
:10205000C9F7F6CF462F4F70405D4A3318F0495DFF
:1020600031FD4052419302D0A9F7EACFB4E0A695E2
:102070009795879577956795BA95C9F70097610504
:10208000710508959B01AC010A2E0694579547955A
:1020900037952795BA95C9F7620F731F841F951F4F
:0820A000A01D0895F894FFCF84
:1020A800000030012000252E3166706F0025646322
:1020B8006D00257500256900256300303132333401
:0C20C800353637383961626364656600A4
:00000001FF
